:030000000202B742
:0C02B700787FE4F6D8FD75813C0202FE61
:0E05E30048656C6C6F20576F726C640D0A00D7
:10050B000B0800000000000000000000000B1300AF
:0A051B0000000000000000000000D6
:10054F007DB07C04ED1D70011C144C70F7EF1F7013
:06055F00011E144E70EABB
:010565002273
:1000260043BA804396105395EF43940F5393F0537E
:10003600967F43958053B2F743B10890FE13E04490
:1000460008F043B2C053B13FD2A412059FD2AF7B92
:10005600FF7A0579E31204E6120616E4FD7F211203
:10006600000E7D017F2212000EE4FD7F2412000E99
:100076001205797F421205FE7F0312058C7F0B1253
:10008600060AE4FF12052D7B007A00792F753805E4
:100096007F301203D77B007A00792F7538057F2AC7
:1000A6001203D77FE87E0312054F12016112020C7C
:1000B60020B2FDC2A47B007A00790875380B7F61F7
:1000C60012043BC2837D407F2712000ED283E508CF
:1000D60064447058E50975F008A424F4FDE5F0348D
:1000E60001FC7F08120343E50A75F008A424F4FD19
:1000F600E5F03401FC7F07120343E50B75F008A415
:1001060024F4FDE5F03401FC7F06120343E50C758B
:10011600F008A424F4FDE5F03401FC7F0512034346
:10012600E50D24FF92B7E50E24FF92B675134F75C1
:10013600144B12061F7F027E0012054FC2837B00FE
:100146007A00791375380B7FA01203D7D2837F010B
:0B0156007E0012054F1205790200B672
:07052500052F0A01070E017A
:10049600E4FEEEC3940874809480501BEF30E704AA
:1004A600D2808002C280EF25E0FFD281A2A7E4338A
:0704B6004207C2810E80DB4A
:0104BD00221C
:09061600C281D282C283D2B22259
:0B0003007F0712056CAB07AD037F27E1
:10000E00C282120496AC07AF05120496D282AF04D8
:01001E0022BF
:0603D7008B358A368937E0
:1003DD00C282120496AD07E4FCECC395385018ABFD
:1003ED00350537E537AA367002053614F912039C28
:0B03FD00FF1204960C80E2D282AF05D4
:0104080022D1
:06056600AC07C2837F0612
:0C056C00C282120496E4FF120496D282B0
:010578002260
:06043B008B358A3689377B
:10044100C282120496AD07E4FCECC395385017E460
:10045100FF120496AB35AA36A9378C82758300EF5B
:0A0461001203B50C80E3D282AF0550
:01046B00226E
:10057900C2837D0F7F2012000E7DFF7F2712000EA0
:03058900D28322F8
:09061F00C2837D2E7F2002000E33
:0604BE008B398A3A893BEC
:1004C400120003EB30E618AB39AA3AA93B75382081
:1004D4007F6112043B7DFF7FE212000E7F00227FCA
:0104E4000116
:0104E50022F4
:10046C00C2837538207FA01203D7D28320B2FD122D
:10047C000003EB30E40A7DFF7FE112000E7F1022B7
:09048C00EB30E5037F20227FFF25
:010495002244
:10058C00120566AD075305F8EC42057F2612000EE6
:02059C00D28308
:01059E00223A
:0C05FE00AD07C2837F2512000ED28322BD
:10052D00120566AD075305D7EC540133333354F838
:10053D004205EC5402C454F042057F2612000ED23F
:01054D00832A
:01054E00228A
:0C060A00AD07C2837F3112000ED28322A4
:03002300020409CB
:10040900C0E0C0D075D000C000C00730981BC298AA
:10041900AF1E051E741F2FF8A699E599B40A034368
:100429001E10741F251EF87600D007D000D0D0D03A
:02043900E032AF
:10059F0075985075D7E675D6FF758E15E4F51ED292
:0205AF00AC227C
:080628008F993099FDC299225F
:1004E6008B348A358936AB34AA35A93612039C601B
:1004F600130536E5367002053514F912039CFF1212
:05050600062880E2223E
:0706300075C78075F50C226F
:0D05F100E4F5C7F5C5F5C675C380F5C42255
:1005B10075C5018DC48FC375C65A75C6A500AFC276
:0105C1002217
:1005C20075C5028DC48FC38BC275C65A75C6A50088
:0105D2002206
:1005D30075C503E4F5C48FC375C65A75C6A5002255
:10016100C290C292C294C2964392555391AA90FEF4
:10017100D0E4F0A3740BF0A3744EF0A3741FF090BD
:10018100FECCE4F0A3F090FEC5F0A3F090FEB1F038
:10019100A3F090FEC4F090FEC87468F090FED57490
:1001A10005F0A374DBF090FECCE04401F090FEC9B1
:1001B1007468F090FED77405F0A374DBF090FECC68
:1001C100E04410F090FECA7468F090FED97405F016
:1001D100A374DBF090FECDE04401F090FECB746897
:1001E100F090FEDB7405F0A374DBF090FECDE044EB
:1001F10010F090FEDD7480F090FEC004F090FEC718
:0B0201007401F090FEB1E04455F022C3
:10020C00C2A0C2A1C2A2C2A343960F5395F090FE06
:10021C00F0E4F0A3740BF0A3744EF0A3741FF090F1
:10022C00FEECE4F0A3F090FEE5F0A3F090FEB5F048
:10023C00A3F090FEE4F090FEE87468F090FEF57484
:10024C0005F0A374DBF090FEECE04401F090FEE9C5
:10025C007468F090FEF77405F0A374DBF090FEEC7C
:10026C00E04410F090FEEA7468F090FEF97405F02A
:10027C00A374DBF090FEEDE04401F090FEEB7468AB
:10028C00F090FEFB7405F0A374DBF090FEEDE044FF
:10029C0010F090FEFD7480F090FEE004F090FEE70C
:0B02AC007401F090FEB5E04455F02214
:10034300EF14B40800505190035875F003A4C5830B
:1003530025F0C5837302038402038902038E02031B
:100363009302037F02037A02037502037090FEFB7C
:10037300802190FEF9801C90FEF7801790FEF58097
:100383001290FED5800D90FED7800890FED9800391
:0903930090FEDBECF0A3EDF0227A
:1002C300020026E493A3F8E493A34003F68001F22B
:1002D30008DFF48029E493A3F85407240CC8C3333C
:1002E300C4540F4420C8834004F456800146F6DF0B
:1002F300E4800B010204081020408090050BE47E8B
:10030300019360BCA3FF543F30E509541FFEE493FF
:10031300A360010ECF54C025E060A840B8E493A3C6
:10032300FAE493A3F8E493A3C8C582C8CAC583CAF1
:10033300F0A3C8C582C8CAC583CADFE9DEE780BEA9
:01052C0000CE
:10039C00BB010689828A83E0225002E722BBFE025F
:0903AC00E32289828A83E4932292
:1003B500F8BB010DE58229F582E5833AF583E8F07E
:1003C500225006E92582C8F622BBFE05E92582C82A
:0203D500F22212
:00000001FF
