:0200000400FFFB
:1000000002006475E900A9D7BA75EA007593007516
:10001000940075910075920075950075960075B104
:100020000075B20075B30075B40075C90075CA00DB
:1000300075CB0075CC0075E10075E20053B2FC434E
:10004000B10374807E34FE077E24007E7A1BB07E6E
:1000500034FE077E24007E7E1BB030E0F275DC00AB
:1000600075F490227584017E44041FE47A49B01B24
:100070004478F97EF8000702007A120003C2CB80B0
:01008000FE81
:00000001FF
